:100000000C9446000C9465000C9465000C946500FB
:100010000C9465000C9465000C9465000C946500CC
:100020000C9465000C9465000C9465000C946500BC
:100030000C9465000C940C010C9465000C94650004
:100040000C9465000C9465000C9465000C9465009C
:100050000C9465000C9465000C9465000C9465008C
:100060000C9465000C9465000C9465000C9465007C
:100070000C9465000C9465000C9465000C9465006C
:100080000C9465000C9465000C94650011241FBE4F
:10009000CFEFD0E4DEBFCDBF11E0A0E0B1E0E6E2FB
:1000A000F5E000E00BBF02C007900D92A231B1074E
:1000B000D9F721E0A2E1B1E001C01D92AA31B20757
:1000C000E1F70E945A020C9491020C940000CF9325
:1000D000DF9300D01F92CDB7DEB789837B836A831D
:1000E00089818A3031F48A819B81BC018DE00E9434
:1000F000670080EC90E0FC018081882F90E08072A6
:100100009927892BB1F386EC90E02981FC012083AB
:1001100080E090E00F900F900F90DF91CF910895C5
:10012000CF93DF9300D000D0CDB7DEB769837A8359
:100130008B839C8389819A81AB81BC8180930E01E2
:1001400090930F01A0931001B093110180910E01C3
:1001500090910F01A0911001B091110180931301B2
:1001600090931401A0931501B093160100000F9015
:100170000F900F900F90DF91CF910895CF93DF9361
:10018000CDB7DEB781E890E02BE0FC01208388E862
:1001900090E02DE730E0FC01318320838FE690E092
:1001A00022E0FC01208384E890E0FC0111821082AF
:1001B00080910E0190910F01A0911001B091110159
:1001C0008093130190931401A0931501B09316012D
:1001D0008FE590E02FE530E0F90120812068FC01F7
:1001E00020830000DF91CF910895CF93DF93CDB7A7
:1001F000DEB781E890E0FC0110820000DF91CF9132
:100200000895CF93DF93CDB7DEB781E080931201DD
:100210000000DF91CF9108951F920F9200905F0030
:100220000F92112400905B000F922F933F934F93F6
:100230005F936F937F938F939F93AF93BF93EF934E
:10024000FF93CF93DF93CDB7DEB7809113019091E9
:100250001401A0911501B09116010197A109B109EE
:100260008093130190931401A0931501B09316018C
:100270008091130190911401A0911501B091160184
:10028000892B8A2B8B2B91F40E94010180910E0106
:1002900090910F01A0911001B09111018093130171
:1002A00090931401A0931501B09316010000DF9103
:1002B000CF91FF91EF91BF91AF919F918F917F91DE
:1002C0006F915F914F913F912F910F9000925B0042
:1002D0000F9000925F000F901F901895CF93DF93BF
:1002E000CDB7DEB78AE790E02AE730E0F901208158
:1002F000206EFC0120830000DF91CF910895CF9301
:10030000DF93CDB7DEB7809117019091180182304D
:100310009105E9F08330910528F4009751F0019799
:1003200079F05FC08330910581F1049709F443C0EF
:1003300058C081E090E0909318018093170157C056
:1003400082E090E0909318018093170150C088E7F5
:1003500090E0FC01808191818536924038F083E005
:1003600090E0909318018093170140C088E790E0D7
:10037000FC01808191818C399140C0F584E090E04E
:10038000909318018093170131C088E790E0FC0139
:10039000808191818C39914038F484E090E0909391
:1003A00018018093170123C082E090E09093180118
:1003B000809317011CC088E790E0FC018081918147
:1003C0008536924038F083E090E090931801809356
:1003D00017010DC082E090E09093180180931701FF
:1003E00006C0109218011092170101C00000809100
:1003F00017019091180182309105E9F08330910541
:1004000030F4009709F451C0019739F04FC08330A0
:10041000910539F10497C9F149C08BE290E02FE7CB
:10042000FC01208381E08093190188E290E0209113
:100430001901FC01208380911901803859F488E763
:1004400090E0FC01808191818C39914018F481E029
:100450008093190188E290E020911901FC0120832A
:1004600025C080911901813021F480E88093190121
:1004700005C08091190186958093190188E290E06A
:1004800020911901FC01208311C08091190180384D
:1004900029F080911901880F8093190188E290E07A
:1004A00020911901FC01208301C000000000DF91B0
:1004B000CF910895CF93DF93CDB7DEB781E290E07F
:1004C000FC01108282E290E02FEFFC01208387E2A2
:1004D00090E02FEFFC01208388E290E0FC01108285
:1004E0008AE290E02FEFFC0120838BE290E0FC0198
:1004F00010820E946E0110921801109217016AE09A
:1005000070E080E090E00E9490000E94BE000E9497
:100510007F010000809112018823E1F31092120103
:06052000F6CFF894FFCFB6
:10052600000000020000000067000000000001005B
:020536000000C3
:00000001FF
