:100000000C9446000C9465000C9465000C946500FB
:100010000C9465000C9465000C9465000C946500CC
:100020000C9465000C9465000C9465000C946500BC
:100030000C9465000C940C010C9465000C94650004
:100040000C9465000C9465000C9465000C9465009C
:100050000C9465000C9465000C9465000C9465008C
:100060000C9465000C9465000C9465000C9465007C
:100070000C9465000C9465000C9465000C9465006C
:100080000C9465000C9465000C94650011241FBE4F
:10009000CFEFD0E4DEBFCDBF11E0A0E0B1E0E8E0FB
:1000A000FBE000E00BBF02C007900D92A831B10742
:1000B000D9F721E0A8E1B1E001C01D92A134B20757
:1000C000E1F70E94FA030C9482050C940000CF9390
:1000D000DF9300D01F92CDB7DEB789837B836A831D
:1000E00089818A3031F48A819B81BC018DE00E9434
:1000F000670080EC90E0FC018081882F90E08072A6
:100100009927892BB1F386EC90E02981FC012083AB
:1001100080E090E00F900F900F90DF91CF910895C5
:10012000CF93DF9300D000D0CDB7DEB769837A8359
:100130008B839C8389819A81AB81BC8180930E01E2
:1001400090930F01A0931001B093110180910E01C3
:1001500090910F01A0911001B091110180931901AC
:1001600090931A01A0931B01B0931C0100000F9003
:100170000F900F900F90DF91CF910895CF93DF9361
:10018000CDB7DEB781E890E02BE0FC01208388E862
:1001900090E02DE730E0FC01318320838FE690E092
:1001A00022E0FC01208384E890E0FC0111821082AF
:1001B00080910E0190910F01A0911001B091110159
:1001C0008093190190931A01A0931B01B0931C0115
:1001D0008FE590E02FE530E0F90120812068FC01F7
:1001E00020830000DF91CF910895CF93DF93CDB7A7
:1001F000DEB781E890E0FC0110820000DF91CF9132
:100200000895CF93DF93CDB7DEB781E080931801D7
:100210000000DF91CF9108951F920F9200905F0030
:100220000F92112400905B000F922F933F934F93F6
:100230005F936F937F938F939F93AF93BF93EF934E
:10024000FF93CF93DF93CDB7DEB7809119019091E3
:100250001A01A0911B01B0911C010197A109B109DC
:100260008093190190931A01A0931B01B0931C0174
:100270008091190190911A01A0911B01B0911C016C
:10028000892B8A2B8B2B91F40E94010180910E0106
:1002900090910F01A0911001B0911101809319016B
:1002A00090931A01A0931B01B0931C010000DF91F1
:1002B000CF91FF91EF91BF91AF919F918F917F91DE
:1002C0006F915F914F913F912F910F9000925B0042
:1002D0000F9000925F000F901F901895CF93DF93BF
:1002E000CDB7DEB72C970FB6F894DEBF0FBECDBFEB
:1002F0006D837E838F83988729873A874B875C87B6
:100300008D819E81AF81B88529853A854B855C8535
:10031000BC01CD010E946005DC01CB0189839A8379
:10032000AB83BC8389819A81AB81BC81892B8A2B69
:100330008B2B29F489859A85AB85BC8511C089856D
:100340009A85AB85BC858D839E83AF83B887898171
:100350009A81AB81BC8189879A87AB87BC87D0CFD4
:10036000BC01CD012C960FB6F894DEBF0FBECDBFF9
:10037000DF91CF910895CF93DF93CDB7DEB78AE7B2
:1003800090E02AE730E0F9012081206EFC01208313
:100390000000DF91CF910895CF93DF931F92CDB7E7
:1003A000DEB789838CE790E02981283028F02CE79C
:1003B00030E0F901208101C02981FC0120831092E5
:1003C0001D0106C0000080911D018F5F80931D01FB
:1003D00080911D018F30B0F300000F90DF91CF911D
:1003E0000895CF93DF9300D0CDB7DEB79A8389838A
:1003F00089819A8182309105C1F0833091052CF476
:10040000009749F0019761F04EC083309105C9F122
:10041000049729F148C081E090E09A83898347C01E
:1004200082E090E09A83898342C088E790E0FC01F3
:10043000808191818536924028F084E090E09A8313
:10044000898334C088E790E0FC01808191818C39F8
:10045000914060F583E090E09A83898327C088E724
:1004600090E0FC01808191818C39914028F483E0F7
:1004700090E09A8389831BC082E090E09A8389830D
:1004800016C088E790E0FC0180819181853692401A
:1004900028F084E090E09A83898309C082E090E0AC
:1004A0009A83898304C01A82198201C0000089815D
:1004B0009A8182309105C9F08330910534F4009718
:1004C00009F442C0019739F040C08330910541F1F1
:1004D000049791F03AC081E080933F0188E290E078
:1004E00020913F01FC01208330C088E290E0209100
:1004F0003F01FC01208329C080913F01813021F41C
:1005000081E080933F0105C080913F0186958093F3
:100510003F0188E290E020913F01FC01208315C05B
:1005200080913F01803821F480E880933F0105C02D
:1005300080913F01880F80933F0188E290E02091F5
:100540003F01FC01208301C0000089819A810F9046
:100550000F90DF91CF910895CF93DF9300D0CDB767
:10056000DEB79A83898389819A8182309105C1F0AF
:10057000833091052CF4009749F0019761F04EC04B
:100580008330910539F10497B9F148C081E090E0DA
:100590009A83898347C082E090E09A83898342C02E
:1005A00088E790E0FC01808191818536924028F0B7
:1005B00083E090E09A83898334C088E790E0FC016F
:1005C000808191818C39914060F584E090E09A833C
:1005D000898327C088E790E0FC01808191818C3974
:1005E000914028F484E090E09A8389831BC082E0E4
:1005F00090E09A83898316C088E790E0FC018081AF
:1006000091818536924028F083E090E09A83898337
:1006100009C082E090E09A83898304C01A8219821B
:1006200001C0000089819A8182309105D1F0833028
:10063000910534F4009709F497C0019741F095C0F3
:1006400083309105A9F0049709F450C08EC08FE75C
:10065000809340018BE290E020914001FC012083D7
:1006600084C08BE290E020914001FC0120837DC09A
:10067000809140018E3F21F48DEF809340012FC087
:10068000809140018D3F21F48BEF8093400127C082
:10069000809140018B3F21F487EF809340011FC080
:1006A00080914001873F21F48FEE8093400117C075
:1006B000809140018F3E21F48FED809340010FC067
:1006C000809140018F3D21F48FEB8093400107C062
:1006D000809140018F3B19F48FE7809340018BE2BA
:1006E00090E020914001FC0120833FC080914001B7
:1006F0008F3721F48FEB809340012FC08091400110
:100700008F3B21F48FED8093400127C08091400101
:100710008F3D21F48FEE809340011FC080914001F6
:100720008F3E21F487EF8093400117C080914001F4
:10073000873F21F48BEF809340010FC080914001EF
:100740008B3F21F48DEF8093400107C080914001E1
:100750008D3F19F48EEF809340018BE290E0209161
:100760004001FC01208301C0000089819A810F9023
:100770000F90DF91CF910895CF93DF9300D0CDB745
:10078000DEB79A83898389819A818130910551F0FE
:100790008230910561F0892B79F481E090E09A83B1
:1007A00089830DC082E090E09A83898308C081E04C
:1007B00090E09A83898303C01A821982000089819C
:1007C0009A818130910531F08230910539F0892B81
:1007D00049F009C080E00E94CC0105C082E00E947F
:1007E000CC0101C0000089819A810F900F90DF91A8
:1007F000CF9108950F931F93CF93DF93CDB7DEB7BB
:100800002B970FB6F894DEBF0FBECDBF81E290E00C
:10081000FC01108282E290E02FEFFC01208384E251
:1008200090E02FEFFC01208385E290E0FC01108234
:1008300087E290E02FEFFC01208388E290E0FC014A
:1008400010828AE290E02FEFFC0120838BE290E09F
:10085000FC0110820E94BB0186E0E2E1F1E0DE01D2
:10086000169601900D928A95E1F783E090E09C83C3
:100870008B838FEF8D838D8180931E0182E390E0C7
:10088000A0E0B0E080931F0190932001A09321018C
:10089000B093220180911F0190912001A09121012C
:1008A000B09122018093230190932401A09325010C
:1008B000B093260181EF91E0909328018093270166
:1008C0008D818093290182E390E0A0E0B0E08093E5
:1008D0002A0190932B01A0932C01B0932D018091BC
:1008E0002A0190912B01A0912C01B0912D018093B0
:1008F0002E0190932F01A0933001B09331018CEA27
:1009000092E090933301809332018D818093340182
:1009100081E090E0A0E0B0E0809335019093360153
:10092000A0933701B0933801809135019091360141
:10093000A0913701B09138018093390190933A0129
:10094000A0933B01B0933C018CEB93E090933E016C
:1009500080933D0161E070E080E090E00E949000B3
:100960000E94BE001A8219829BC089819A81880FD9
:10097000991F9E012F5F3F4F820F931F0596FC0129
:1009800080819181FC012581368147815085898153
:100990009A81880F991FBE016F5F7F4F860F971F47
:1009A0000596FC0180819181FC0181819281A38166
:1009B000B481281739074A075B0709F045C08981C8
:1009C0009A81880F991F9E012F5F3F4F820F931FBF
:1009D0000596FC010081118189819A81880F991FF8
:1009E0009E012F5F3F4F820F931F0596FC01808170
:1009F0009181FC012185328589819A81880F991F17
:100A0000AE014F5F5F4F840F951F0596FC018081FB
:100A10009181FC018081082E000C990BF901099548
:100A2000F801808389819A81880F991F9E012F5F29
:100A30003F4F820F931F0596FC0180819181FC013D
:100A4000158216821782108689819A81880F991FD4
:100A50009E012F5F3F4F820F931F0596FC0120815F
:100A6000318189819A81880F991FAE014F5F5F4F55
:100A7000840F951F0596FC0180819181FC01858181
:100A80009681A781B0850196A11DB11DF9018583CD
:100A90009683A783B08789819A8101969A838983F7
:100AA00029813A818B819C812817390708F45DCF11
:100AB0000000809118018823E1F31092180152CFB1
:100AC000A1E21A2EAA1BBB1BFD010DC0AA1FBB1F52
:100AD000EE1FFF1FA217B307E407F50720F0A21BC4
:100AE000B30BE40BF50B661F771F881F991F1A9431
:100AF00069F760957095809590959B01AC01BD015B
:080B0000CF010895F894FFCF26
:100B08000000000200000000670000000000010073
:080B180000001E012901340157
:00000001FF
